{
  "contractName": "SelfBank",
  "abi": [
    {
      "anonymous": false,
      "inputs": [
        {
          "indexed": true,
          "internalType": "address",
          "name": "user",
          "type": "address"
        },
        {
          "indexed": false,
          "internalType": "uint256",
          "name": "amount",
          "type": "uint256"
        }
      ],
      "name": "Deposit",
      "type": "event"
    },
    {
      "anonymous": false,
      "inputs": [
        {
          "indexed": true,
          "internalType": "address",
          "name": "user",
          "type": "address"
        },
        {
          "indexed": false,
          "internalType": "uint256",
          "name": "interest",
          "type": "uint256"
        }
      ],
      "name": "InterestCalculated",
      "type": "event"
    },
    {
      "anonymous": false,
      "inputs": [
        {
          "indexed": true,
          "internalType": "address",
          "name": "user",
          "type": "address"
        },
        {
          "indexed": false,
          "internalType": "uint256",
          "name": "amount",
          "type": "uint256"
        },
        {
          "indexed": false,
          "internalType": "uint256",
          "name": "interest",
          "type": "uint256"
        }
      ],
      "name": "Withdrawal",
      "type": "event"
    },
    {
      "stateMutability": "payable",
      "type": "fallback",
      "payable": true
    },
    {
      "inputs": [],
      "name": "ANNUAL_INTEREST_RATE",
      "outputs": [
        {
          "internalType": "uint256",
          "name": "",
          "type": "uint256"
        }
      ],
      "stateMutability": "view",
      "type": "function",
      "constant": true
    },
    {
      "inputs": [],
      "name": "MAX_WITHDRAWAL_PERCENTAGE",
      "outputs": [
        {
          "internalType": "uint256",
          "name": "",
          "type": "uint256"
        }
      ],
      "stateMutability": "view",
      "type": "function",
      "constant": true
    },
    {
      "inputs": [],
      "name": "SECONDS_PER_YEAR",
      "outputs": [
        {
          "internalType": "uint256",
          "name": "",
          "type": "uint256"
        }
      ],
      "stateMutability": "view",
      "type": "function",
      "constant": true
    },
    {
      "inputs": [
        {
          "internalType": "address",
          "name": "",
          "type": "address"
        }
      ],
      "name": "deposits",
      "outputs": [
        {
          "internalType": "uint256",
          "name": "amount",
          "type": "uint256"
        },
        {
          "internalType": "uint256",
          "name": "timestamp",
          "type": "uint256"
        },
        {
          "internalType": "uint256",
          "name": "lastInterestCalculation",
          "type": "uint256"
        }
      ],
      "stateMutability": "view",
      "type": "function",
      "constant": true
    },
    {
      "stateMutability": "payable",
      "type": "receive",
      "payable": true
    },
    {
      "inputs": [],
      "name": "deposit",
      "outputs": [],
      "stateMutability": "payable",
      "type": "function",
      "payable": true
    },
    {
      "inputs": [
        {
          "internalType": "address",
          "name": "user",
          "type": "address"
        }
      ],
      "name": "calculateInterest",
      "outputs": [
        {
          "internalType": "uint256",
          "name": "",
          "type": "uint256"
        }
      ],
      "stateMutability": "view",
      "type": "function",
      "constant": true
    },
    {
      "inputs": [
        {
          "internalType": "uint256",
          "name": "amount",
          "type": "uint256"
        }
      ],
      "name": "withdraw",
      "outputs": [],
      "stateMutability": "nonpayable",
      "type": "function"
    },
    {
      "inputs": [
        {
          "internalType": "address",
          "name": "user",
          "type": "address"
        }
      ],
      "name": "getTotalBalance",
      "outputs": [
        {
          "internalType": "uint256",
          "name": "",
          "type": "uint256"
        }
      ],
      "stateMutability": "view",
      "type": "function",
      "constant": true
    },
    {
      "inputs": [],
      "name": "getContractBalance",
      "outputs": [
        {
          "internalType": "uint256",
          "name": "",
          "type": "uint256"
        }
      ],
      "stateMutability": "view",
      "type": "function",
      "constant": true
    }
  ],
  "bytecode": "0x608060405234801561001057600080fd5b50610892806100206000396000f3fe6080604052600436106100a7576000357c010000000000000000000000000000000000000000000000000000000090048063d3d3819311610076578063d3d38193146101aa578063e11932cf146101ca578063e6a69ab8146101ea578063fa3c309214610202578063fc7e286d14610217576100fc565b80632e1a7d4d146101475780636f9fb98a14610169578063b67833931461018c578063d0e30db0146101a2576100fc565b366100fc5760405160e560020a62461bcd02815260206004820152601c60248201527f557365206465706f736974282920746f206465706f736974204554480000000060448201526064015b60405180910390fd5b60405160e560020a62461bcd02815260206004820152601760248201527f46756e6374696f6e20646f6573206e6f7420657869737400000000000000000060448201526064016100f3565b34801561015357600080fd5b5061016761016236600461075f565b61026e565b005b34801561017557600080fd5b5030315b6040519081526020015b60405180910390f35b34801561019857600080fd5b506101796101f481565b610167610545565b3480156101b657600080fd5b506101796101c5366004610778565b61068f565b3480156101d657600080fd5b506101796101e5366004610778565b6106d0565b3480156101f657600080fd5b506101796301e1338081565b34801561020e57600080fd5b50610179603281565b34801561022357600080fd5b50610253610232366004610778565b60006020819052908152604090208054600182015460029092015490919083565b60408051938452602084019290925290820152606001610183565b8030318111156102e95760405160e560020a62461bcd02815260206004820152602160248201527f436f6e74726163742068617320696e73756666696369656e742062616c616e6360448201527f650000000000000000000000000000000000000000000000000000000000000060648201526084016100f3565b336000908152602081905260409020805483111561034c5760405160e560020a62461bcd02815260206004820152601460248201527f496e73756666696369656e742062616c616e636500000000000000000000000060448201526064016100f3565b600083116103c55760405160e560020a62461bcd02815260206004820152602860248201527f5769746864726177616c20616d6f756e74206d7573742062652067726561746560448201527f72207468616e203000000000000000000000000000000000000000000000000060648201526084016100f3565b60006103d0336106d0565b905060008183600001546103e491906107e4565b9050600060646103f56032846107f7565b6103ff919061080e565b9050808611156104545760405160e560020a62461bcd02815260206004820181905260248201527f45786365656473206d6178696d756d207769746864726177616c206c696d697460448201526064016100f3565b61045e8683610849565b8455426002850155604080518781526020810185905233917fdf273cb619d95419a9cd0ec88123a0538c85064229baa6363788f743fff90deb910160405180910390a2604051600090339088908381818185875af1925050503d80600081146104e3576040519150601f19603f3d011682016040523d82523d6000602084013e6104e8565b606091505b505090508061053c5760405160e560020a62461bcd02815260206004820152600f60248201527f5472616e73666572206661696c6564000000000000000000000000000000000060448201526064016100f3565b50505050505050565b600034116105be5760405160e560020a62461bcd02815260206004820152602560248201527f4465706f73697420616d6f756e74206d7573742062652067726561746572207460448201527f68616e203000000000000000000000000000000000000000000000000000000060648201526084016100f3565b3360009081526020819052604090208054156106315760006105df336106d0565b9050808260000160008282546105f591906107e4565b909155505060405181815233907f3aff28a570e0ff120bf92f84de651faa874ba2dd7268ad0fc5a68107492729799060200160405180910390a2505b3481600001600082825461064591906107e4565b90915550504260018201819055600282015560405134815233907fe1fffcc4923d04b559f4d29a8bfc6cda04eb5b0d3c460751c2402c5c5cc9109c9060200160405180910390a250565b600061069a826106d0565b73ffffffffffffffffffffffffffffffffffffffff83166000908152602081905260409020546106ca91906107e4565b92915050565b73ffffffffffffffffffffffffffffffffffffffff81166000908152602081905260408120805482036107065750600092915050565b60008160020154426107189190610849565b90506000816101f4846000015461072f91906107f7565b61073991906107f7565b905061271061074c6301e133808361080e565b610756919061080e565b95945050505050565b60006020828403121561077157600080fd5b5035919050565b60006020828403121561078a57600080fd5b813573ffffffffffffffffffffffffffffffffffffffff811681146107ae57600080fd5b9392505050565b7f4e487b7100000000000000000000000000000000000000000000000000000000600052601160045260246000fd5b808201808211156106ca576106ca6107b5565b80820281158282048414176106ca576106ca6107b5565b600082610844577f4e487b7100000000000000000000000000000000000000000000000000000000600052601260045260246000fd5b500490565b818103818111156106ca576106ca6107b556fea26469706673582212206c97f38af2933c00f49bc5e30912e8f15ba9ab5e16525ccf38d5cec6a3bf2add64736f6c63430008140033",
  "immutableReferences": {},
  "source": "// SPDX-License-Identifier: MIT  \npragma solidity ^0.8.20;  \n\ncontract SelfBank {  \n    struct DepositInfo {  \n        uint256 amount;  \n        uint256 timestamp;  \n        uint256 lastInterestCalculation;  \n    }  \n    \n    mapping(address => DepositInfo) public deposits;  \n    \n    uint256 public constant ANNUAL_INTEREST_RATE = 500; // 5%   \n    uint256 public constant MAX_WITHDRAWAL_PERCENTAGE = 50; // 50%  \n    uint256 public constant SECONDS_PER_YEAR = 31536000; // 365 days  \n    \n    event Deposit(address indexed user, uint256 amount);  \n    event Withdrawal(address indexed user, uint256 amount, uint256 interest);  \n    event InterestCalculated(address indexed user, uint256 interest);  \n\n    //   \n    modifier hasEnoughBalance(uint256 amount) {  \n        require(address(this).balance >= amount, \"Contract has insufficient balance\");  \n        _;  \n    }  \n\n    function deposit() public payable {  \n        require(msg.value > 0, \"Deposit amount must be greater than 0\");  \n        \n        DepositInfo storage userDeposit = deposits[msg.sender];  \n        \n        //   \n        if (userDeposit.amount > 0) {  \n            uint256 interest = calculateInterest(msg.sender);  \n            userDeposit.amount += interest;  \n            emit InterestCalculated(msg.sender, interest);  \n        }  \n        \n        //   \n        userDeposit.amount += msg.value;  \n        userDeposit.timestamp = block.timestamp;  \n        userDeposit.lastInterestCalculation = block.timestamp;  \n        \n        emit Deposit(msg.sender, msg.value);  \n    }  \n\n    function calculateInterest(address user) public view returns (uint256) {  \n        DepositInfo storage userDeposit = deposits[user];  \n        \n        if (userDeposit.amount == 0) {  \n            return 0;  \n        }  \n        \n        uint256 timeElapsed = block.timestamp - userDeposit.lastInterestCalculation;  \n        \n        //   \n        uint256 interest = userDeposit.amount * ANNUAL_INTEREST_RATE * timeElapsed;  \n        interest = interest / SECONDS_PER_YEAR / 10000;  \n                         \n        return interest;  \n    }  \n\n    function withdraw(uint256 amount) public hasEnoughBalance(amount) {  \n        DepositInfo storage userDeposit = deposits[msg.sender];  \n        \n        require(userDeposit.amount >= amount, \"Insufficient balance\");  \n        require(amount > 0, \"Withdrawal amount must be greater than 0\");  \n        \n        //   \n        uint256 interest = calculateInterest(msg.sender);  \n        uint256 totalBalance = userDeposit.amount + interest;  \n        \n        //   \n        uint256 maxWithdrawal = (totalBalance * MAX_WITHDRAWAL_PERCENTAGE) / 100;  \n        require(amount <= maxWithdrawal, \"Exceeds maximum withdrawal limit\");  \n        \n        //   \n        userDeposit.amount = totalBalance - amount;  \n        userDeposit.lastInterestCalculation = block.timestamp;  \n        \n        // ETH  \n        emit Withdrawal(msg.sender, amount, interest);  \n        \n        (bool success, ) = payable(msg.sender).call{value: amount}(\"\");  \n        require(success, \"Transfer failed\");  \n    }  \n\n    function getTotalBalance(address user) public view returns (uint256) {  \n        return deposits[user].amount + calculateInterest(user);  \n    }  \n\n    function getContractBalance() public view returns (uint256) {  \n        return address(this).balance;  \n    }  \n\n    receive() external payable {  \n        revert(\"Use deposit() to deposit ETH\");  \n    }  \n\n    fallback() external payable {  \n        revert(\"Function does not exist\");  \n    }  \n}",
  "sourcePath": "/Users/rainxl/learing/xl-bank-project/contracts/SelfBank.sol",
  "compiler": {
    "name": "solc",
    "version": "0.8.20+commit.a1b79de6.Emscripten.clang"
  },
  "schemaVersion": "3.4.16",
  "updatedAt": "2025-02-21T00:26:20.792Z",
  "networkType": "ethereum",
  "devdoc": {
    "kind": "dev",
    "methods": {},
    "version": 1
  },
  "userdoc": {
    "kind": "user",
    "methods": {},
    "version": 1
  }
}